{
  "contractName": "noti",
  "abi": [
    {
      "constant": true,
      "inputs": [],
      "name": "owner",
      "outputs": [
        {
          "name": "",
          "type": "address"
        }
      ],
      "payable": false,
      "stateMutability": "view",
      "type": "function"
    },
    {
      "inputs": [
        {
          "name": "who",
          "type": "address"
        }
      ],
      "payable": false,
      "stateMutability": "nonpayable",
      "type": "constructor"
    },
    {
      "anonymous": false,
      "inputs": [
        {
          "indexed": false,
          "name": "who",
          "type": "string"
        }
      ],
      "name": "notification",
      "type": "event"
    },
    {
      "constant": false,
      "inputs": [],
      "name": "callEvent",
      "outputs": [],
      "payable": false,
      "stateMutability": "nonpayable",
      "type": "function"
    }
  ],
  "bytecode": "0x608060405234801561001057600080fd5b506040516020806101db8339810180604052602081101561003057600080fd5b8101908080519060200190929190505050806000806101000a81548173ffffffffffffffffffffffffffffffffffffffff021916908373ffffffffffffffffffffffffffffffffffffffff1602179055505061014a806100916000396000f3fe608060405234801561001057600080fd5b50600436106100365760003560e01c80637197668b1461003b5780638da5cb5b14610045575b600080fd5b61004361008f565b005b61004d6100f9565b604051808273ffffffffffffffffffffffffffffffffffffffff1673ffffffffffffffffffffffffffffffffffffffff16815260200191505060405180910390f35b7f59db005c6f94d5480f4dc99d4d6e363496387169338bf3d23fedf6d95f9fa82d6040518080602001828103825260088152602001807f616e616e7468616e00000000000000000000000000000000000000000000000081525060200191505060405180910390a1565b6000809054906101000a900473ffffffffffffffffffffffffffffffffffffffff168156fea165627a7a72305820a38ec86bbd916cac34cff41d220bdeed93956ec13a7864b8cecfbcdaee0e13130029",
  "source": "pragma solidity ^0.5.0;\n\n\ncontract noti {\n\n  address public owner;\n\n  constructor (address who) public{\n    owner = who;\n  }\n\n  event notification(string who);\n\n  function callEvent() public {\n    emit notification(\"ananthan\");\n  }\n}",
  "sourcePath": "/mnt/e/A/cedb3/Notification/contracts/noti.sol",
  "compiler": {
    "name": "solc",
    "version": "0.5.8+commit.23d335f2.Emscripten.clang"
  },
  "schemaVersion": "3.0.11",
  "updatedAt": "2019-09-01T07:25:57.818Z",
  "devdoc": {
    "methods": {}
  },
  "userdoc": {
    "methods": {}
  }
}